0000001001CHJACQUES PAYNE                 A00001234562023010101
0000001002SVMARIA THOMPSON                A00000098452021061502
0000001003LNDERRICK JOHNSON               D00024567892019032005
0000001004CHALINA NGUYEN                  C00000000002018011103
0000001005SVSAMUEL RIVERA                 A00003100992022120902
